{
  "_format": "hh-sol-artifact-1",
  "contractName": "ProofEscrow",
  "sourceName": "ProofEscrow.sol",
  "abi": [
    {
      "inputs": [
        {
          "internalType": "address",
          "name": "usdc_",
          "type": "address"
        },
        {
          "internalType": "address",
          "name": "forwarder_",
          "type": "address"
        },
        {
          "internalType": "address",
          "name": "recipient_",
          "type": "address"
        },
        {
          "internalType": "uint256",
          "name": "scoreThreshold_",
          "type": "uint256"
        }
      ],
      "stateMutability": "nonpayable",
      "type": "constructor"
    },
    {
      "anonymous": false,
      "inputs": [
        {
          "indexed": true,
          "internalType": "address",
          "name": "depositor",
          "type": "address"
        },
        {
          "indexed": false,
          "internalType": "uint256",
          "name": "amount",
          "type": "uint256"
        }
      ],
      "name": "Funded",
      "type": "event"
    },
    {
      "anonymous": false,
      "inputs": [
        {
          "indexed": false,
          "internalType": "string",
          "name": "reason",
          "type": "string"
        }
      ],
      "name": "Rejected",
      "type": "event"
    },
    {
      "anonymous": false,
      "inputs": [
        {
          "indexed": true,
          "internalType": "address",
          "name": "recipient",
          "type": "address"
        },
        {
          "indexed": false,
          "internalType": "uint256",
          "name": "amount",
          "type": "uint256"
        }
      ],
      "name": "Released",
      "type": "event"
    },
    {
      "inputs": [
        {
          "internalType": "uint256",
          "name": "amount",
          "type": "uint256"
        }
      ],
      "name": "depositUSDC",
      "outputs": [],
      "stateMutability": "nonpayable",
      "type": "function"
    },
    {
      "inputs": [],
      "name": "forwarder",
      "outputs": [
        {
          "internalType": "contract IKeystoneForwarder",
          "name": "",
          "type": "address"
        }
      ],
      "stateMutability": "view",
      "type": "function"
    },
    {
      "inputs": [],
      "name": "recipient",
      "outputs": [
        {
          "internalType": "address",
          "name": "",
          "type": "address"
        }
      ],
      "stateMutability": "view",
      "type": "function"
    },
    {
      "inputs": [],
      "name": "scoreThreshold",
      "outputs": [
        {
          "internalType": "uint256",
          "name": "",
          "type": "uint256"
        }
      ],
      "stateMutability": "view",
      "type": "function"
    },
    {
      "inputs": [],
      "name": "state",
      "outputs": [
        {
          "internalType": "enum ProofEscrow.State",
          "name": "",
          "type": "uint8"
        }
      ],
      "stateMutability": "view",
      "type": "function"
    },
    {
      "inputs": [
        {
          "internalType": "bool",
          "name": "compliant",
          "type": "bool"
        },
        {
          "internalType": "uint256",
          "name": "score",
          "type": "uint256"
        },
        {
          "internalType": "bytes",
          "name": "sig",
          "type": "bytes"
        }
      ],
      "name": "submitProof",
      "outputs": [],
      "stateMutability": "nonpayable",
      "type": "function"
    },
    {
      "inputs": [],
      "name": "usdc",
      "outputs": [
        {
          "internalType": "contract IERC20",
          "name": "",
          "type": "address"
        }
      ],
      "stateMutability": "view",
      "type": "function"
    }
  ],
  "bytecode": "0x6101006040523480156200001257600080fd5b50604051620013cc380380620013cc8339818101604052810190620000389190620001b8565b8373ffffffffffffffffffffffffffffffffffffffff1660808173ffffffffffffffffffffffffffffffffffffffff16815250508273ffffffffffffffffffffffffffffffffffffffff1660a08173ffffffffffffffffffffffffffffffffffffffff16815250508173ffffffffffffffffffffffffffffffffffffffff1660c08173ffffffffffffffffffffffffffffffffffffffff16815250508060e0818152505060008060006101000a81548160ff021916908360038111156200010457620001036200022a565b5b02179055505050505062000259565b600080fd5b600073ffffffffffffffffffffffffffffffffffffffff82169050919050565b6000620001458262000118565b9050919050565b620001578162000138565b81146200016357600080fd5b50565b60008151905062000177816200014c565b92915050565b6000819050919050565b62000192816200017d565b81146200019e57600080fd5b50565b600081519050620001b28162000187565b92915050565b60008060008060808587031215620001d557620001d462000113565b5b6000620001e58782880162000166565b9450506020620001f88782880162000166565b93505060406200020b8782880162000166565b92505060606200021e87828801620001a1565b91505092959194509250565b7f4e487b7100000000000000000000000000000000000000000000000000000000600052602160045260246000fd5b60805160a05160c05160e051611108620002c4600039600081816102fe01526105510152600081816103220152818161071801526107d90152600081816101c801526103570152600081816102da015281816104190152818161061601526106dc01526111086000f3fe608060405234801561001057600080fd5b506004361061007d5760003560e01c806366d003ac1161005b57806366d003ac146100da578063c19d93fb146100f8578063f645d4f914610116578063f688bcfb146101345761007d565b80630246a5ca146100825780633e413bee1461009e57806365ee9f62146100bc575b600080fd5b61009c60048036038101906100979190610989565b610150565b005b6100a66102d8565b6040516100b39190610a7c565b60405180910390f35b6100c46102fc565b6040516100d19190610aa6565b60405180910390f35b6100e2610320565b6040516100ef9190610ae2565b60405180910390f35b610100610344565b60405161010d9190610b74565b60405180910390f35b61011e610355565b60405161012b9190610bb0565b60405180910390f35b61014e60048036038101906101499190610bcb565b610379565b005b6001600381111561016457610163610afd565b5b60008054906101000a900460ff16600381111561018457610183610afd565b5b146101c4576040517f08c379a00000000000000000000000000000000000000000000000000000000081526004016101bb90610c55565b60405180910390fd5b60007f000000000000000000000000000000000000000000000000000000000000000073ffffffffffffffffffffffffffffffffffffffff16638e760afe868686866040516020016102199493929190610ce2565b6040516020818303038152906040526040518263ffffffff1660e01b81526004016102449190610d90565b602060405180830381865afa158015610261573d6000803e3d6000fd5b505050506040513d601f19601f820116820180604052508101906102859190610dc7565b9050806102c7576040517f08c379a00000000000000000000000000000000000000000000000000000000081526004016102be90610e40565b60405180910390fd5b6102d18585610547565b5050505050565b7f000000000000000000000000000000000000000000000000000000000000000081565b7f000000000000000000000000000000000000000000000000000000000000000081565b7f000000000000000000000000000000000000000000000000000000000000000081565b60008054906101000a900460ff1681565b7f000000000000000000000000000000000000000000000000000000000000000081565b6000600381111561038d5761038c610afd565b5b60008054906101000a900460ff1660038111156103ad576103ac610afd565b5b146103ed576040517f08c379a00000000000000000000000000000000000000000000000000000000081526004016103e490610ed2565b60405180910390fd5b60016000806101000a81548160ff0219169083600381111561041257610411610afd565b5b02179055507f000000000000000000000000000000000000000000000000000000000000000073ffffffffffffffffffffffffffffffffffffffff166323b872dd3330846040518463ffffffff1660e01b815260040161047493929190610ef2565b6020604051808303816000875af1158015610493573d6000803e3d6000fd5b505050506040513d601f19601f820116820180604052508101906104b79190610dc7565b6104f6576040517f08c379a00000000000000000000000000000000000000000000000000000000081526004016104ed90610f75565b60405180910390fd5b3373ffffffffffffffffffffffffffffffffffffffff167f5af8184bef8e4b45eb9f6ed7734d04da38ced226495548f46e0c8ff8d7d9a5248260405161053c9190610aa6565b60405180910390a250565b81801561057457507f00000000000000000000000000000000000000000000000000000000000000008110155b1561058657610581610612565b61060e565b816105ce576105c96040518060400160405280601181526020017f636f6d706c69616e6365206661696c6564000000000000000000000000000000815250610848565b61060d565b61060c6040518060400160405280601581526020017f73636f72652062656c6f77207468726573686f6c640000000000000000000000815250610848565b5b5b5050565b60007f000000000000000000000000000000000000000000000000000000000000000073ffffffffffffffffffffffffffffffffffffffff166370a08231306040518263ffffffff1660e01b815260040161066d9190610ae2565b602060405180830381865afa15801561068a573d6000803e3d6000fd5b505050506040513d601f19601f820116820180604052508101906106ae9190610faa565b905060026000806101000a81548160ff021916908360038111156106d5576106d4610afd565b5b02179055507f000000000000000000000000000000000000000000000000000000000000000073ffffffffffffffffffffffffffffffffffffffff1663a9059cbb7f0000000000000000000000000000000000000000000000000000000000000000836040518363ffffffff1660e01b8152600401610755929190610fd7565b6020604051808303816000875af1158015610774573d6000803e3d6000fd5b505050506040513d601f19601f820116820180604052508101906107989190610dc7565b6107d7576040517f08c379a00000000000000000000000000000000000000000000000000000000081526004016107ce9061104c565b60405180910390fd5b7f000000000000000000000000000000000000000000000000000000000000000073ffffffffffffffffffffffffffffffffffffffff167fb21fb52d5749b80f3182f8c6992236b5e5576681880914484d7f4c9b062e619e8260405161083d9190610aa6565b60405180910390a250565b60036000806101000a81548160ff0219169083600381111561086d5761086c610afd565b5b02179055507f60fcb063dfb61bee56c1e77e37d47eb14f308516b0712e8ec2a1b8b71a60f38d816040516108a191906110b0565b60405180910390a150565b600080fd5b600080fd5b60008115159050919050565b6108cb816108b6565b81146108d657600080fd5b50565b6000813590506108e8816108c2565b92915050565b6000819050919050565b610901816108ee565b811461090c57600080fd5b50565b60008135905061091e816108f8565b92915050565b600080fd5b600080fd5b600080fd5b60008083601f84011261094957610948610924565b5b8235905067ffffffffffffffff81111561096657610965610929565b5b6020830191508360018202830111156109825761098161092e565b5b9250929050565b600080600080606085870312156109a3576109a26108ac565b5b60006109b1878288016108d9565b94505060206109c28782880161090f565b935050604085013567ffffffffffffffff8111156109e3576109e26108b1565b5b6109ef87828801610933565b925092505092959194509250565b600073ffffffffffffffffffffffffffffffffffffffff82169050919050565b6000819050919050565b6000610a42610a3d610a38846109fd565b610a1d565b6109fd565b9050919050565b6000610a5482610a27565b9050919050565b6000610a6682610a49565b9050919050565b610a7681610a5b565b82525050565b6000602082019050610a916000830184610a6d565b92915050565b610aa0816108ee565b82525050565b6000602082019050610abb6000830184610a97565b92915050565b6000610acc826109fd565b9050919050565b610adc81610ac1565b82525050565b6000602082019050610af76000830184610ad3565b92915050565b7f4e487b7100000000000000000000000000000000000000000000000000000000600052602160045260246000fd5b60048110610b3d57610b3c610afd565b5b50565b6000819050610b4e82610b2c565b919050565b6000610b5e82610b40565b9050919050565b610b6e81610b53565b82525050565b6000602082019050610b896000830184610b65565b92915050565b6000610b9a82610a49565b9050919050565b610baa81610b8f565b82525050565b6000602082019050610bc56000830184610ba1565b92915050565b600060208284031215610be157610be06108ac565b5b6000610bef8482850161090f565b91505092915050565b600082825260208201905092915050565b7f50726f6f66457363726f773a2066756e6473206e6f74206c6f636b6564000000600082015250565b6000610c3f601d83610bf8565b9150610c4a82610c09565b602082019050919050565b60006020820190508181036000830152610c6e81610c32565b9050919050565b610c7e816108b6565b82525050565b600082825260208201905092915050565b82818337600083830152505050565b6000601f19601f8301169050919050565b6000610cc18385610c84565b9350610cce838584610c95565b610cd783610ca4565b840190509392505050565b6000606082019050610cf76000830187610c75565b610d046020830186610a97565b8181036040830152610d17818486610cb5565b905095945050505050565b600081519050919050565b60005b83811015610d4b578082015181840152602081019050610d30565b60008484015250505050565b6000610d6282610d22565b610d6c8185610c84565b9350610d7c818560208601610d2d565b610d8581610ca4565b840191505092915050565b60006020820190508181036000830152610daa8184610d57565b905092915050565b600081519050610dc1816108c2565b92915050565b600060208284031215610ddd57610ddc6108ac565b5b6000610deb84828501610db2565b91505092915050565b7f50726f6f66457363726f773a20696e76616c6964207369676e61747572650000600082015250565b6000610e2a601e83610bf8565b9150610e3582610df4565b602082019050919050565b60006020820190508181036000830152610e5981610e1d565b9050919050565b7f50726f6f66457363726f773a206e6f74206177616974696e67206465706f736960008201527f7400000000000000000000000000000000000000000000000000000000000000602082015250565b6000610ebc602183610bf8565b9150610ec782610e60565b604082019050919050565b60006020820190508181036000830152610eeb81610eaf565b9050919050565b6000606082019050610f076000830186610ad3565b610f146020830185610ad3565b610f216040830184610a97565b949350505050565b7f50726f6f66457363726f773a207472616e73666572206661696c656400000000600082015250565b6000610f5f601c83610bf8565b9150610f6a82610f29565b602082019050919050565b60006020820190508181036000830152610f8e81610f52565b9050919050565b600081519050610fa4816108f8565b92915050565b600060208284031215610fc057610fbf6108ac565b5b6000610fce84828501610f95565b91505092915050565b6000604082019050610fec6000830185610ad3565b610ff96020830184610a97565b9392505050565b7f50726f6f66457363726f773a2072656c65617365206661696c65640000000000600082015250565b6000611036601b83610bf8565b915061104182611000565b602082019050919050565b6000602082019050818103600083015261106581611029565b9050919050565b600081519050919050565b60006110828261106c565b61108c8185610bf8565b935061109c818560208601610d2d565b6110a581610ca4565b840191505092915050565b600060208201905081810360008301526110ca8184611077565b90509291505056fea2646970667358221220a51b4efcea3017544f0f11d295d8a4f9fb13cd17d2471478b5ff4c4e92f012a964736f6c63430008180033",
  "linkReferences": {},
  "deployedLinkReferences": {}
}